:100000000CEF06F0010E0101395FD8A016EF00F0E9
:10001000010EEA6E390EE96EEF50D8B416EF00F01B
:10002000040E006E002EFED7EF2EFAD7000112004C
:10003000010137531FE1898A96908D80020E386F37
:10004000960E396F0001DEDF0101382FF9D7969047
:100050008D90010E0D26D8B00E2AD8B40F2AD8B430
:10006000102A020E386F960E396F0001CBDF0101A6
:10007000382FF9D7372D1FD0899A96908D80020E90
:10008000386F960E396F0001BDDF0101382FF9D7A7
:1000900096908D90FF0E0D26D8A00E26D8A00F2684
:1000A000D8A01026020E386F960E396F0001AADF15
:1000B0000101382FF9D700011200010137531EE169
:1000C00096948D84898E020E386F960E396F0001DA
:1000D00099DF0101382FF9D7899E010E1126D8B07A
:1000E000122AD8B4132AD8B4142A020E386F960EE6
:1000F000396F000187DF0101382FF9D7372D1ED066
:1001000096948D94898E020E386F960E396F000189
:1001100079DF0101382FF9D7899EFF0E1126D8A06B
:100120001226D8A01326D8A01426020E386F960ED9
:10013000396F000167DF0101382FF9D70001120084
:10014000010137531DE189808984020E386F960EB4
:10015000396F000157DF0101382FF9D78994010E5B
:100160001526D8B0162AD8B4172AD8B4182A020EE1
:10017000386F960E396F000145DF0101382FF9D72E
:10018000372D1DD089908984020E386F960E396FF5
:10019000000138DF0101382FF9D78994FF0E1526A9
:1001A000D8A01626D8A01726D8A01826020E386F79
:1001B000960E396F000126DF0101382FF9D70001B3
:1001C0001200010137531DE18A848A88020E386FBC
:1001D000960E396F000116DF0101382FF9D78A9882
:1001E000010E1926D8B01A2AD8B41B2AD8B41C2A52
:1001F000020E386F960E396F000104DF0101382FAF
:10020000F9D7372D1DD08A948A88020E386F960E42
:10021000396F0001F7DE0101382FF9D78A98FF0EF8
:100220001926D8A01A26D8A01B26D8A01C26020E54
:10023000386F960E396F0001E5DE0101382FF9D7CE
:1002400000011200010137531DE18C8E8A80020EDD
:10025000386F960E396F0001D5DE0101382FF9D7BE
:100260008A90010E1D26D8B01E2AD8B41F2AD8B4F1
:10027000202A020E386F960E396F0001C3DE01018D
:10028000382FF9D7372D1DD08C9E8A80020E386FFB
:10029000960E396F0001B6DE0101382FF9D78A902A
:1002A000FF0E1D26D8A01E26D8A01F26D8A02026C7
:1002B000020E386F960E396F0001A4DE0101382F4F
:1002C000F9D700011200010EEA6E380EE96EEF5008
:1002D0000EE0140E016E006A002EFED7012EFBD731
:1002E000BF0E006E002EFED700D0EF2EF2D7120008
:1002F0000D1C316E0E1C326E0F1C336E101C346ED2
:10030000312AD8B4322AD8B4332AD8B4342A111CAA
:10031000356E121C366E131C376E141C386E352A5F
:10032000D8B4362AD8B4372AD8B4382A151C416E26
:10033000161C426E171C436E181C446E412AD8B41A
:10034000422AD8B4432AD8B4442A191C4D6E1A1C28
:100350004E6E1B1C4F6E1C1C506E4D2AD8B44E2A7C
:10036000D8B44F2AD8B4502A1D1C596E1E1C5A6E80
:100370001F1C5B6E201C5C6E592AD8B45A2AD8B454
:100380005B2AD8B45C2A34BE0DD0345207E1335214
:1003900005E1325203E13150000804E20101376BFC
:1003A000000146DE34AE05D0010E0101376F0001B9
:1003B0003FDE31520AE1325208E1335206E1345253
:1003C00004E1106A0F6A0E6A0D6A0D5228E10E529E
:1003D00026E10F5224E1105222E138BE0DD03852EE
:1003E00007E1375205E1365203E13550000804E2D7
:1003F0000101376B000161DE38AE05D0010E01014D
:10040000376F00015ADE35520AE1365208E13752A1
:1004100006E1385204E1146A136A126A116A0D5235
:1004200030E10E522EE10F522CE110522AE111520E
:1004300028E1125226E1135224E1145222E144BE73
:100440000DD0445207E1435205E1425203E14150CD
:10045000000804E20101376B000172DE44AE05D0F2
:10046000010E0101376F00016BDE41520AE1425279
:1004700008E1435206E1445204E1186A176A166A19
:10048000156A0D5238E10E5236E10F5234E1105226
:1004900032E1115230E112522EE113522CE114528A
:1004A0002AE1155228E1165226E1175224E118528A
:1004B00022E150BE0DD0505207E14F5205E14E529D
:1004C00003E14D50000804E20101376B000179DEC1
:1004D00050AE05D0010E0101376F000172DE4D52A2
:1004E0000AE14E5208E14F5206E1505204E11C6A03
:1004F0001B6A1A6A196A0D5243E10E5241E10F520A
:100500003FE110523DE111523BE1125239E11352E9
:1005100037E1145235E1155233E1165231E11752E9
:100520002FE118522DE119522BE11A5229E11B52E9
:1005300027E11C5225E15CBE0DD05C5207E15B5205
:1005400005E15A5203E15950000804E20101376BFA
:10055000000178DE5CAE05D0010E0101376F0001AD
:1005600071DE59520DE15A520BE15B5209E15C52C6
:1005700007E1096A206A1F6A1E6A1D6A010E0C6E75
:1005800012000652D8A49DD1085277E10B5275E1B2
:10059000651D216E661D226E671D236E681D246E0B
:1005A000212AD8B4222AD8B4232AD8B4242A24C091
:1005B00030F023C02FF022C02EF021C02DF0691D95
:1005C000396E6A1D3A6E6B1D3B6E6C1D3C6E392A8E
:1005D000D8B43A2AD8B43B2AD8B43C2A3CC040F01C
:1005E0003BC03FF03AC03EF039C03DF06D1D456E56
:1005F0006E1D466E6F1D476E701D486E452AD8B43D
:10060000462AD8B4472AD8B4482A48C04CF047C034
:100610004BF046C04AF045C049F0711D516E721D45
:10062000526E731D536E741D546E512AD8B4522AE3
:10063000D8B4532AD8B4542A54C058F053C057F0F1
:1006400052C056F051C055F0751D5D6E761D5E6E40
:10065000771D5F6E781D606F5D2AD8B45E2AD8B4AE
:100660005F2AD8B4602B60C064F05FC063F05EC0E6
:1006700062F05DC061F0010E086E30AE0CD0010179
:10068000376B0001D5DC010E2D26D8B02E2AD8B448
:100690002F2AD8B4302A30BE16D0305207E12F525C
:1006A00005E12E5203E12D5000080DE2010E01017B
:1006B000376F0001BDDCFF0E2D26D8A02E26D8A056
:1006C0002F26D8A030262D522CE12E522AE12F526F
:1006D00028E1305226E140AE0CD00101376B000119
:1006E000ECDC010E3D26D8B03E2AD8B43F2AD8B45F
:1006F000402A40BE16D0405207E13F5205E13E522B
:1007000003E13D5000080DE2010E0101376F0001C9
:10071000D4DCFF0E3D26D8A03E26D8A03F26D8A088
:1007200040262D5234E12E5232E12F5230E1305228
:100730002EE13D522CE13E522AE13F5228E1405247
:1007400026E14CAE0CD00101376B0001F9DC010E43
:100750004926D8B04A2AD8B44B2AD8B44C2A4CBE21
:1007600016D04C5207E14B5205E14A5203E1495081
:1007700000080DE2010E0101376F0001E1DCFF0E00
:100780004926D8A04A26D8A04B26D8A04C262D52C0
:1007900046E12E5244E12F5242E1305240E13D52B7
:1007A0003EE13E523CE13F523AE1405238E149528B
:1007B00036E14A5234E14B5232E14C5230E158AE0C
:1007C0000CD00101376B0001FCDC010E5526D8B0BE
:1007D000562AD8B4572AD8B4582A58BE16D05852D8
:1007E00007E1575205E1565203E1555000080DE26A
:1007F000010E0101376F0001E4DCFF0E5526D8A081
:100800005626D8A05726D8A05826555208E1565249
:1008100006E1575204E1585202E1010E0B6E2D52CF
:10082000D8A44FD02E524DE12F524BE1305249E126
:100830003D5247E13E5245E13F5243E1405241E1E2
:1008400049523FE14A523DE14B523BE14C5239E1C2
:10085000555237E1565235E1575233E1585231E1A2
:1008600064AF0CD00101376B0001ECDC010E612795
:10087000D8B0622BD8B4632BD8B4642B64BF16D025
:10088000645307E1635305E1625303E161510008DA
:100890000DE2010E0101376F0001D4DCFF0E61276C
:1008A000D8A06227D8A06327D8A06427615309E1A4
:1008B000625307E1635305E1645303E1062A010E25
:1008C0000B6E062CA7D1082C66D07951655D216E80
:1008D0007A516659226E7B516759236E7C51685953
:1008E000246E24C030F023C02FF022C02EF021C08F
:1008F0002DF07D51695D396E7E516A593A6E7F5196
:100900006B593B6E80516C593C6E3CC040F03BC013
:100910003FF03AC03EF039C03DF081516D5D456E0B
:1009200082516E59466E83516F59476E845170598A
:10093000486E48C04CF047C04BF046C04AF045C036
:1009400049F08551715D516E86517259526E8751D1
:100950007359536E88517459546E54C058F053C033
:1009600057F052C056F051C055F08951755D5D6E1B
:100970008A5176595E6E8B5177595F6E8C517859DA
:10098000606F60C064F05FC063F05EC062F05DC025
:1009900061F0020E086E30AE0DD00101376B000120
:1009A00018EC00F0010E2D26D8B02E2AD8B42F2A2C
:1009B000D8B4302A30BE17D0305207E12F5205E1AB
:1009C0002E5203E12D5000080EE2010E0101376F97
:1009D000000118EC00F0FF0E2D26D8A02E26D8A07E
:1009E0002F26D8A030262D52D8A414D12E52D8A408
:1009F00011D12F52D8A40ED13052D8A40BD140AE71
:100A00000DD00101376B00015DEC00F0010E3D26B9
:100A1000D8B03E2AD8B43F2AD8B4402A40BE17D016
:100A2000405207E13F5205E13E5203E13D500008CC
:100A30000EE2010E0101376F00015DEC00F0FF0EC8
:100A40003D26D8A03E26D8A03F26D8A040262D522D
:100A5000D8A4E0D02E52D8A4DDD02F52D8A4DAD01A
:100A60003052D8A4D7D03D52D8A4D4D03E52D8A426
:100A7000D1D03F52D8A4CED04052D8A4CBD04CAE87
:100A80000DD00101376B0001A0EC00F0010E4926EA
:100A9000D8B04A2AD8B44B2AD8B44C2A4CBE17D066
:100AA0004C5207E14B5205E14A5203E1495000081C
:100AB0000EE2010E0101376F0001A0EC00F0FF0E05
:100AC0004926D8A04A26D8A04B26D8A04C262D527D
:100AD000D8A4A0D02E52D8A49DD02F52D8A49AD05A
:100AE0003052D8A497D03D52D8A494D03E52D8A426
:100AF00091D03F52D8A48ED04052D8A48BD0495226
:100B0000D8A488D04A52D8A485D04B52D8A482D039
:100B10004C52D8A47FD058AE0DD00101376B0001E4
:100B2000E1EC00F0010E5526D8B0562AD8B4572A69
:100B3000D8B4582A58BE17D0585207E1575205E189
:100B4000565203E1555000080EE2010E0101376FC5
:100B50000001E1EC00F0FF0E5526D8A05626D8A0E3
:100B60005726D8A058262D52D8A454D02E52D8A4F7
:100B700051D02F524FE130524DE13D524BE13E52A8
:100B800049E13F5247E1405245E1495243E14A526F
:100B900041E14B523FE14C523DE155523BE156524F
:100BA00039E1575237E1585235E164AF0DD00101B8
:100BB000376B000122EC01F0010E6127D8B0622BE7
:100BC000D8B4632BD8B4642B64BF17D0645307E147
:100BD000635305E1625303E1615100080EE2010E27
:100BE0000101376F000122EC01F0FF0E6127D8A050
:100BF0006227D8A06327D8A0642761530BE1625312
:100C000009E1635307E1645305E1066A0B6A086A68
:100C1000076A0C6A3EEF09F0F86AD09E700ED36E38
:100C20009B8C9B9E046A056A066A076A086A096AC1
:100C30000A6A0B6A0C6A106A0F6A0E6A0D6A146AF5
:100C4000136A126A116A186A176A166A156A1C6AA8
:100C50001B6A1A6A196A206A1F6A1E6A1D6A246A58
:100C6000236A226A216A286A276A266A256A2C6A08
:100C70002B6A2A6A296A306A2F6A2E6A2D6A346AB8
:100C8000336A326A316A386A376A366A356A3C6A68
:100C90003B6A3A6A396A406A3F6A3E6A3D6A446A18
:100CA000436A426A416A486A476A466A456A4C6AC8
:100CB0004B6A4A6A496A506A4F6A4E6A4D6A546A78
:100CC000536A526A516A586A576A566A556A5C6A28
:100CD0005B6A5A6A596A606B5F6A5E6A5D6A646BD6
:100CE000636B626B616B0F01386B396B3A6B3B6BFB
:100CF0003C6B776A786A796A03D0C8406500000067
:100D0000000EF86E0C0EF76EFA0EF66E0900F55036
:100D1000006E000A13E00900F550016EE8BE05D030
:100D20000F0BEA6E0900F5CFE9FF01BC090001AC29
:100D30000900F5CFEEFF004EE9D7F9D7F86A000EAB
:100D4000926E936EFC0E946E7F0E956E96928D92BF
:100D5000899A96908D90899C96948D94899E899677
:100D6000899089948A9A8A948A988A928C9E8A9089
:100D7000898EC150F00BC16E000E386F3C6F396F19
:100D80000C0E3A6F0D0E3B6FC050C00B0709C06EC2
:100D9000C08EC280500E016EC250830B0110C26E15
:100DA000350E006E002EFED7C282C2B2FED7C4CF6F
:100DB0002EF10101C3CF2DF1350E006E002EFED7AE
:100DC0003C0E016EC250830B0110C26E350E006ED8
:100DD000002EFED7C282C2B2FED7C3CF2FF1C4CF3E
:100DE00030F1350E006E002EFED75C0E016EC25043
:100DF000830B0110C26E350E006E002EFED7C2822C
:100E0000C2B2FED7C3CF31F1C4CF32F1350E006E7E
:100E1000002EFED7580E016EC250830B0110C26E19
:100E2000350E006E002EFED7C282C2B2FED7C3CFEF
:100E300033F1C4CF34F1350E006E002EFED7380EDC
:100E4000016EC250830B0110C26E350E006E002E73
:100E5000FED7C282C2B2FED7C3CF35F1C4CF36F1BE
:100E60002EBF0ED02E5101080BE2FF0A03E12D51D7
:100E7000BC0806E2376B000118EC00F00DD0010150
:100E80002EBF05D02E5309E12D51F90806E3010EBE
:100E9000376F000118EC00F0010130BF0ED0305167
:100EA00001080BE2FF0A03E12F51BC0806E2376B91
:100EB00000015DEC00F00DD0010130BF05D03053D2
:100EC00009E12F51F90806E3010E376F00015DECCF
:100ED00000F0010132BF0ED0325101080BE2FF0ACF
:100EE00003E13151BC0806E2376B0001A0EC00F0D1
:100EF0000DD0010132BF05D0325309E13151F9085B
:100F000006E3010E376F0001A0EC00F0010134BFD1
:100F10000ED0345101080BE2FF0A03E13351BC0843
:100F200006E2376B0001E1EC00F00DD0010134BFA7
:100F300005D0345309E13351F90806E3010E376F48
:100F40000001E1EC00F0010136BF0ED0365101087E
:100F50000BE2FF0A03E13551BC0806E2376B0001E2
:100F600022EC01F00DD0010136BF05D0365309E166
:100F70003551F90806E3010E376F000122EC01F04C
:100F8000010182AE0ED004520CE1010E046E020E7D
:100F9000376FFA0E386F000163EC01F00101372F53
:100FA000F8D782AE08D0010E0A6EC80E386F000165
:100FB00063EC01F001010A2C31D0042C2FD0000188
:100FC00078EC01F00D5229E10E5227E10F5225E194
:100FD000105223E1115221E112521FE113521DE17F
:100FE00014521BE1155219E1165217E1175215E17F
:100FF000185213E1195211E11A520FE11B520DE17F
:101000001C520BE11D5209E11E5207E11F5205E17E
:10101000205203E10A6A046A056A0101042C07D11F
:1010200083A882D00552D8A47FD00550140DF35068
:10103000386B376F650E3725E96E000E3821EA6E82
:101040000DC0EFFF0EC0ECFF0FC0ECFF10C0ECFFB7
:101050000550140DF350386B376F040E3725016EB1
:10106000000E3821036E0150650FE96E000E03205B
:10107000EA6E11C0EFFF12C0ECFF13C0ECFF14C00A
:10108000ECFF0550140DF350386B376F080E372501
:10109000016E000E3821036E0150650FE96E000EDF
:1010A0000320EA6E15C0EFFF16C0ECFF17C0ECFF7F
:1010B00018C0ECFF0550140DF350386B376F0C0E51
:1010C0003725016E000E3821036E0150650FE96E61
:1010D000000E0320EA6E19C0EFFF1AC0ECFF1BC020
:1010E000ECFF1CC0ECFF0550140DF350386B376F4C
:1010F000100E3725016E000E3821036E0150650F6A
:10110000E96E000E0320EA6E1DC0EFFF1EC0ECFF6B
:101110001FC0ECFF20C0ECFF010E056EC80E386F3B
:10112000000163EC01F0010183A881D0052C7FD080
:101130000550140DF350386B376F650E3725E96E87
:10114000000E3821EA6E0DC0EFFF0EC0ECFF0FC09D
:10115000ECFF10C0ECFF0550140DF350386B376FE7
:10116000040E3725016E000E3821036E0150650F05
:10117000E96E000E0320EA6E11C0EFFF12C0ECFF13
:1011800013C0ECFF14C0ECFF0550140DF350386B86
:10119000376F080E3725016E000E3821036E01509F
:1011A000650FE96E000E0320EA6E15C0EFFF16C052
:1011B000ECFF17C0ECFF18C0ECFF0550140DF35006
:1011C000386B376F0C0E3725016E000E3821036E19
:1011D0000150650FE96E000E0320EA6E19C0EFFFA3
:1011E0001AC0ECFF1BC0ECFF1CC0ECFF0550140D37
:1011F000F350386B376F100E3725016E000E382113
:10120000036E0150650FE96E000E0320EA6E1DC0EB
:10121000EFFF1EC0ECFF1FC0ECFF20C0ECFF020E72
:10122000056EC80E386F000163EC01F0010183AA5E
:101230000AD0075208E1010E076EC80E386F000190
:1012400063EC01F0010183AA0CD0072C0AD00B6AD1
:10125000086A076A0C6AC80E386F000163EC01F077
:101260000101072C0CD00C5204E1000178EC01F0D4
:1012700001010C2C04D00001C1EF02F0010183AC8C
:101280000AD0095208E1010E096EC80E386F00013C
:1012900063EC01F0010183AC09D0092C07D0096A85
:1012A000C80E386F000163EC01F00101092C03D076
:0C12B000000178EC01F00F015BD5030099
:020000040030CA
:0E0000000028193C003F8000000000C00F40A7
:00000001FF
;PIC18F46K22
;CRC=A737  CREATED="04-Haz-23 22:29"
